:020000040000FA
:100000008A111128FF3FFF3FFE00030E83120313E6
:10001000CA000408CB000A08CC007F08CD008A1172
:10002000122C8A115A2E3108B0007F208A11033019
:10003000F10034304F230A308A1129260530B600EA
:1000400008004230EA238A1109308316B1001230C9
:10005000F6007608013EF400003003180130F50088
:10006000803AFF0080307F02031D38281B30740265
:100070000318472876084F3E840083130008F400D5
:100080007608A03E840074088000F60A29288312AE
:10009000031330088316BA00D6238A11FE23080002
:1000A0004230EA238A1105308316B1001230F6007F
:1000B0007608013EF400003003180130F500803A64
:1000C000FF0080307F02031D67281B307402031875
:1000D000762876084F3E840083130008F4007608E3
:1000E000A03E840074088000F60A58288312031387
:1000F00030088316BA00D6238A11FE230800423046
:10010000EA238A1103308316B1001230F600760814
:10011000013EF400003003180130F500803AFF0082
:1001200080307F02031D96281B3074020318A52817
:1001300076084F3E840083130008F4007608A03E42
:10014000840074088000F60A87288312031330089D
:100150008316BA00D6238A11FE230800FB01FA0198
:100160007B08F700BC300310F70D0310F70D0310E8
:10017000F70D7707F8007A087807F9008400FF3058
:10018000831380000830FA0A7A02031CB028053075
:10019000FB0A7B02031CAF28FB017B08423E840064
:1001A00008308001FB0A7B02031CCD28B001B50199
:1001B000B101E5208A110330F1001C304F230A30D1
:1001C0008A1129260230B6000800E430EA238A1199
:1001D00083161230B101B10AF6007608013EF40030
:1001E000003003180130F500803AFF0080307F02B4
:1001F000031DFC281B30740203180B2976084F3EA0
:10020000840083130008F4007608A03E840074087C
:100210008000F60AED288312031335088316BA000E
:10022000D6238A11FE230800FB01FA01FC017B089A
:10023000F700BC300310F70D0310F70D0310F70D96
:100240007707F8007C087807F90084008313000919
:10025000FA040830FC0A7C02031C1729FA08031D63
:100260003B29A7238A110330F10044304F238A1120
:10027000B601062308000530FB0A7B02031C152982
:1002800050208A110330F10020304F23B601B60A06
:1002900008000330F10038304F238A117E238A1181
:1002A00021208A110330F1002C304F23B601B60A09
:1002B0000800F3005E3068238A11710868238A11F0
:1002C000F4017108740203186F2974087307F200AF
:1002D00084008313000868238A11F40A61295E30C0
:1002E00068230800B9290330F10038304F238A1100
:1002F0007E238A110630B600062308000330F10081
:1003000014304F238A11F8017808393E8400831392
:100310000008F4004108F500B4300310F50D031097
:10032000F50D0310F50D7507F60078087607F70050
:100330008400740880000830F80A78020318080066
:1003400084290330F10040304F238A117E238A1123
:10035000B6017C290330F1003030A4293808003A76
:100360000319AA29043A03197E29FB3A0319A12982
:10037000BE293708003A03197329AE290800052A57
:100380000330F10038304F238A117E238A11A723CE
:100390008A110330F10044304F238A11B60106233D
:1003A00008000330F10024304F238A117E238A1184
:1003B000F8017808393E840083130008F7007808B4
:1003C000423E8400770880000830F80A7802031C57
:1003D000D9294108B1000430B600CF290330F1001B
:1003E00040304F238A117E238A11CE290330F10039
:1003F0003030F1293808003A0319F629023A031976
:10040000D129FD3A0319EE290A2A3708003A0319BF
:10041000C029FA290800672A0330F10038304F2339
:100420008A117E238A1178306823B601B60A080043
:100430000330F10040304F238A11FA013808113A95
:10044000FA0439083106FA043A083506FA04FA08BB
:10045000031D08007E238A11152A0430F1000130A3
:100460004F238A1139083106031D08003A08350662
:10047000031D08003B08F4003C08F5003D08F600A9
:10048000310885238A110430F10006304F238A1188
:10049000783068238A113B0868238A11F901F90A28
:1004A0003C0879020318582A3B0868238A114F2A0E
:1004B0003D08031908008A11292608003808113A56
:1004C00003192D2AEF3A0319182A6C2A0800370855
:1004D000003A03190C2A5E2A0800F42A0330F100BE
:1004E00028304F238A110330B6000623080003305A
:1004F000F1003C304F238A11FD017D08393E840014
:1005000083130008F9004108FA00B4300310FA0D13
:100510000310FA0D0310FA0D7A07FB007D087B0724
:10052000FC008400790880000830FD0A7D02031871
:1005300008007D2A0330F10018304F238A11FD0195
:100540004108F900B4300310F90D0310F90D031040
:10055000F90D7907FA007D087A07FB00840008305E
:1005600083138001FD0A7D0203180800A02A0430CD
:10057000F10001304F238A113908B1003A08B50063
:100580003006031D08003B08F4003C08F5003D0858
:10059000F600310885238A110430F10006304F231C
:1005A0008A11783068238A113B0868238A11FD017B
:1005B000FD0A3C087D020318E12A3B0868238A11E2
:1005C000D82A3D080319E72A3D088A112926073051
:1005D000B60008000430F1000B304F238A110A30B6
:1005E000F1003830592108003808063A0319772AF3
:1005F000013A03199A2A0F3A03196E2A193A031974
:10060000B72A313A0319EA2A052B0800390868236A
:100610008A11422B0230F10051304F238A11AE2053
:1006200008000230F1005D304F238A116D2208006E
:100630000230F1004B304F238A11BF2108000230F5
:10064000F10057304F238A11492108000230F10090
:1006500054304F238A11132008000230F1005A3021
:100660004F238A11722108000230F10048304F23D5
:100670008A11142108000230F1004E304F238A11F4
:100680000B22080036088400083004020318080012
:1006900006308A000310040DAE3E82000800F2000E
:1006A000403068238A11710868238A11F3017108A8
:1006B00073020318652B7308720784008A115F2583
:1006C0008A1168238A11F30A572B403068230800E7
:1006D000F0002808403A290403190800A40A031965
:1006E000A50A3F30A405A5012408903E84007008A7
:1006F00083178000A80A0319A90A0800101083169E
:100700000C1083120C10B7010800F7004230EA23E6
:100710008A1112308316B1007708B20083123008B4
:100720008316B3007408B4007508B5007608B600E7
:100730001730F8007808A03E84001B308001F80ACA
:100740007802031C9A2BD6238A11FE23080042301C
:10075000EA238A11FF308316B1001230F6007608C2
:10076000013EF400003003180130F500803AFF002C
:1007700080307F02031DBE2B1B3074020318CD2B6B
:1007800076084F3E840083130008F4007608A03EEC
:10079000840074088000F60AAF2B8312031331081B
:1007A0008316BA00D6238A11FE2308000330F00115
:1007B000F1007108A03E840083130008F0071B308D
:1007C000F10A7102031CD92BFF30F0067008831662
:1007D000BB000800F200F30173087207F000840008
:1007E00083130008F1007308A53E8400710880009F
:1007F0000830F30A730203180800EC2BF1017108AA
:10080000A03E840000080B248A111C30F10A7102FA
:1008100003180800FF2BF00083120C1E0C2C70082C
:10082000990008000C1C2D2C83160C1C2D2C8312F7
:100830002D082B06031D1E2C2C082A06031D292C0F
:10084000B7018A1106238A1183120313AA01AB018F
:100850002C2CAA0A0319AB0A0C1083160C1D422C6F
:1008600083120C1D422CAF08031D3D2C0430970051
:1008700016081508AF01AF0A402C16081508AF017D
:100880000C119C2C83128C1E502C83168C1E502C09
:100890008B1383121A08B200B301B30A8C129B2C7B
:1008A00083128C1D9C2C831614088312CE002D30CD
:1008B000CE058B134E08093A031D622CAE011308B6
:1008C000B2009A2C4E08293A031D702C2E08D03EF7
:1008D00084001308831780001F30AE0AAE059A2CDF
:1008E0004E082C390C3A031D832CA7248A11B20020
:1008F00083161418782C8312941332089300941BD7
:100900007B2C14169A2C4E082C3A031D942CA724E9
:100910008A11B200831614188A2C83129413320899
:100920009300941F812C8D2C4E082839283A0319E6
:100930009A2C10308C118B174D08FF004C088A0040
:100940004B0884004A0E8300FE0E7E0E0900290823
:100950002804031924342608903E840083170008D5
:10096000F000A60A0319A70A3F30A605FF30A70129
:10097000A807031CA9037008080008007C30831630
:100980008F0005308312CF00D0018A1189268A1189
:100990008B1383169B0107309C00831285018316FD
:1009A0008501831286013730831686008A11BE26A0
:1009B0008A110530CF00D0018A1189268A118A1147
:1009C000DE268A118A11CD268A118A1100268A1103
:1009D0008A11F7258A1183120313981CF12C18121F
:1009E0001816141B1413330BEB2C4A2D32087E3AC5
:1009F000031D5B2DB401B40A5B2D3208A000023048
:100A0000A101A201A301412D3208A0070130031862
:100A1000A1070318A2070318A3070330412D0030D4
:100A20002302031D1D2D00302202031D1D2D003049
:100A30002102031D1D2D0B3020020318282D4230EA
:100A4000DD002008DD025D08840032088313800089
:100A50000130DD00DE01DF01E001A0025E08031CC1
:100A60005E0FA1025F08031C5F0FA2026008031C57
:100A7000600FA3022308220421042004031D5B2D20
:100A80000430B4005B2DB4018A15C2268A115B2D97
:100A9000B4015B2D3408003A0319F62C013A03190E
:100AA000FD2C033A0319042D013A03190F2D073ABF
:100AB0000319432D482D83120313B301EB2C05308A
:100AC0008A000408840A8207003420343C344D3400
:100AD0004334003420343E344D3443340034203425
:100AE0003C3452344D340034793436340D340034CF
:100AF00020343C344134003420343C344434003419
:100B000020343E344434003420343E344A340034FB
:100B100020343C344F34003420343C3450340034DE
:100B200020343E345034003420343C3452340034C9
:100B300020343E345234003420343C3454340034B5
:100B400020343C345534003420343C3458340034A0
:100B500020343E34583400342134413400342134BC
:100B60004434003421344D34003421344E340034C4
:100B700021344F3400342134503400342134523481
:100B8000003421345434003442308A1592278A11BB
:100B900009308316B10012308312D5005508013E8A
:100BA000D300003003180130D400803AFF008030B9
:100BB0007F02031DDD2D1B3053020318EE2D83121F
:100BC000031355084F3E840083130008D3005508D3
:100BD000A03E840053088000D50ACE2D8312031353
:100BE00030088316BA008A15A6278A15D32F002647
:100BF0008A1104268A110F268312B6018A15C22E85
:100C00003030831290000800CF014F08383E840036
:100C10000A308001CF0A4F0203180800052ECF01C9
:100C20004F08A03E84001C308001CF0A4F02031CF5
:100C3000102E7E308316A0001830A101A2001030C3
:100C4000A300FF30A401AD00FE30AE00AF01B00143
:100C50000800F600101483160C1483120C148E0175
:100C60008F01AA01AB017608F0000A30F101F20011
:100C7000F30141267108AD007008AC00FF30B700E9
:100C80000800F401F501701C4B2E7208F4070318DC
:100C9000F50A7308F5070310F20DF30D0310F10CBC
:100CA000F00C71087004031D432E7508F1007408E0
:100CB000F00008002030831384004A308A11D626C1
:100CC0008A11A0308400E4308A11D6268A1190302F
:100CD00083178400F0308A11D6268316FF30E40192
:100CE000E501E601E701E801E901EA00EB00831212
:100CF0001330E101E200A230E3004030E401E500FE
:100D0000A930E600E230E700F630E80083018A11FE
:100D1000BE2C50084F0403190800D101D201D10A9A
:100D20000319D20A27305202103003195102031C52
:100D30008F2EFF30CF07031CD003892E8A15D22EA9
:100D40008A15D82E8A15DE2E8A15E42E8A15EA2EEB
:100D50008A15F02E8A15F62E8A15FC2E8A110A2B7A
:100D60008A11112B8A11182B8A111F2B8A11262BFD
:100D70008A112D2B8A11342B8A113B2B813099003B
:100D80001815981618128312981783168C160C12C1
:100D90000B17831218131816080036309400A03071
:100DA000831693008C150B178B17080064008001C5
:100DB000840A0406031900340406D72EFF30A80164
:100DC000A901A400A500A601A7010800FF3FFF3F5D
:100DD000FF3FFF3FFF3FFF3FFF3FFF3FFF3FFF3F23
:100DE000FF3FFF3FFF3FFF3FFF3FFF3FFF3FFF3F13
:100DF000FF3FFF3FFF3FFF3FFF3FFF3FFF3FFF3F03
:100E0000FF3FFF3FFF3FFF3FFF3FFF3FFF3FFF3FF2
:10180000FF3FFF3F423092278A1505308316B10013
:1018100012308312D5005508013ED3000030031862
:101820000130D400803AFF0080307F02031D1A2C63
:101830001B30530203182B2C8312031355084F3E01
:10184000840083130008D3005508A03E8400530889
:101850008000D50A0B2C8312031330088316BA00BC
:10186000A6278A15D32F3108B00041248A150330EA
:10187000D000343002278A150A30BB270530B60065
:101880000800423092278A1503308316B1001230C7
:101890008312D5005508013ED300003003180130F3
:1018A000D400803AFF0080307F02031D592C1B308A
:1018B000530203186A2C8312031355084F3E840009
:1018C00083130008D3005508A03E8400530880000D
:1018D000D50A4A2C8312031330088316BA00A627B0
:1018E0008A15D32FDA01D9015A08D600BC3003106B
:1018F000D60D0310D60D0310D60D5607D700590884
:101900005707D8008400FF30831380000830D90ABD
:101910005902031C742C0530DA0A5A02031C732C7A
:10192000DA015A08423E840008308001DA0A5A027D
:10193000031C912CB001B501B101A9248A15033013
:10194000D0001C3002278A150A30BB270230B600AF
:101950000800E43092278A1583161230B101B10ACB
:101960008312D5005508013ED30000300318013022
:10197000D400803AFF0080307F02031DC12C1B3051
:1019800053020318D22C8312031355084F3E8400D0
:1019900083130008D3005508A03E8400530880003C
:1019A000D50AB22C8312031335088316BA00A62772
:1019B0008A15D32FDA01D901DB015A08D600BC30D1
:1019C0000310D60D0310D60D0310D60D5607D70001
:1019D0005B085707D800840083130009D904083036
:1019E000DB0A5B02031CDD2CD908031D002D6127D7
:1019F0008A150330D000443002278A15B601C22E62
:101A00000530DA0A5A02031CDB2C02248A15033043
:101A1000D00020300227B601B60A08000330D000FB
:101A2000383002278A1530278A11C4258A150330D9
:101A3000D0002C300227B601B60A0800D2005E3072
:101A40001A278A1550081A278A15D30150085302FD
:101A50000318342D53085207D10084008313000863
:101A60001A278A15D30A262D5E301A2F7C2D0330B3
:101A7000D000383002278A1530278A150630B60084
:101A8000C22E0330D000143002278A15D701570820
:101A9000393E840083130008D3004108D400B430D9
:101AA0000310D40D0310D40D0310D40D5407D5002A
:101AB00057085507D6008400530880000830D70A1D
:101AC000570203180800472D0330D000403002278A
:101AD0008A1530278A15B601402D0330D0003030EA
:101AE000672D3808003A03196D2D043A0319412D6A
:101AF000FB3A0319642D812D3708003A0319372D5D
:101B0000712D0800C72D0330D000383002278A1508
:101B100030278A1561278A150330D0004430022708
:101B20008A15B601C22E0330D000243002278A1550
:101B300030278A15D7015708393E840083130008DF
:101B4000D6005708423E8400560880000830D70A65
:101B50005702031C9B2D4108B1000430B600922DA2
:101B60000330D000403002278A1530278A15912D86
:101B70000330D0003030B32D3808003A0319B82DA7
:101B8000023A0319932DFD3A0319B02DCC2D3708D5
:101B9000003A0319832DBC2D0800272E0330D000F6
:101BA000383002278A1530278A1578301A27B6016F
:101BB000B60A08000330D000403002278A15D90148
:101BC0003808113AD90439083106D9043A083506DB
:101BD000D904D908031D080030278A15D72D0430F1
:101BE000D000013002278A1539083106031D08008C
:101BF0003A083506031D08003B08D3003C08D40012
:101C00003D08D500310837278A150430D00006304A
:101C100002278A1578301A278A153B081A278A1551
:101C2000D801D80A3C08580203181A2E3B081A2774
:101C30008A15112E3D0803190800BB2F3808113AE8
:101C40000319EF2DEF3A0319DA2D2C2E080037086F
:101C5000003A0319CE2D1E2E08003808063A031943
:101C6000462E013A0319692E0F3A03193E2E193AEE
:101C70000319862E313A0319B82EC12E0330D00035
:101C8000283002278A150330B600C22E0330D00058
:101C90003C3002278A15DC015C08393E840083133E
:101CA0000008D8004108D900B4300310D90D031042
:101CB000D90D0310D90D5907DA005C085A07DB006B
:101CC0008400580880000830DC0A5C020318080011
:101CD0004C2E0330D000183002278A15DC01410851
:101CE000D800B4300310D80D0310D80D0310D80D50
:101CF0005807D9005C085907DA00840008308313BC
:101D00008001DC0A5C02031808006F2E0430D0004A
:101D1000013002278A153908B1003A08B5003006AB
:101D2000031D08003B08D3003C08D4003D08D50043
:101D3000310837278A150430D000063002278A156B
:101D400078301A278A153B081A278A15DC01DC0A25
:101D50003C085C020318B02E3B081A278A15A72EF0
:101D60003D080319B52E3D08BB270730B600080013
:101D70000430D0000B3002278A150A30D0003830EA
:101D80001E2D080039081A278A15360884000830E5
:101D900004020318080006308A000310040D9E3E5A
:101DA000820008000230D000513002278A15722CC0
:101DB0000230D0005D3002278A152D2E0230D0006F
:101DC0004B3002278A15822D0230D000573002276F
:101DD0008A150E2D0230D000543002278A15332C7C
:101DE0000230D0005A3002278A15362D0230D0003A
:101DF000483002278A15DA2C0230D0004E300227F4
:101E00008A15CD2DD10040301A278A1550081A277F
:101E10008A15D201500852020318182F5208510790
:101E200084008A115F258A151A278A15D20A0A2F7B
:101E300040301A2FCF002808403A2904031908001F
:101E4000A40A0319A50A3F30A405A5012408903E61
:101E500084004F0883178000A80A0319A90A080004
:101E6000101083160C1083120C10B7010800D60056
:101E7000423092278A1512308316B1008312560819
:101E80008316B200831230088316B30083125308FE
:101E90008316B400831254088316B50083125508C4
:101EA0008316B60017308312D7005708A03E84006F
:101EB0001B308001D70A5702031C552FA6278A150D
:101EC000D32F423092278A15FF308316B10012308B
:101ED0008312D5005508013ED300003003180130AD
:101EE000D400803AFF0080307F02031D792F1B3021
:101EF000530203188A2F8312031355084F3E8400A0
:101F000083130008D3005508A03E840053088000C6
:101F1000D50A6A2F8312031331088316BA00A62745
:101F20008A15D32FD100D20152085107CF00840067
:101F300083130008D0005208A53E8400500880009A
:101F40000830D20A520203180800942F831203307B
:101F5000CF01D0005008A03E840083130008CF07B3
:101F60001B30D00A5002031CAA2FFF30CF064F08A7
:101F70008316BB000800D500101483160C148312BE
:101F80000C148E018F01AA01AB015508CF000A3055
:101F9000D001D100D201E7275008AD004F08AC00B6
:101FA000FF30B70008008312D0015008A03E840023
:101FB0000008E1278A151C30D00A500203180800D7
:101FC000D52FCF000C1EE22F4F0899000800D30137
:101FD000D4014F1CF12F5108D3070318D40A52081B
:101FE000D4070310D10DD20D0310D00CCF0C500824
:101FF0004F04031DE92F5408D0005308CF000800F8
:10420000FF00FF00FF00FF00FF00FF00FF00FF00B6
:10421000FF00FF00FF00FF00FF00FF00FF00FF00A6
:10422000FF00FF00FF00FF00FF00FF00FF00FF0096
:10423000FF00FF00FF00FF00FF00FF00FF00FF0086
:10424000FF00FF00FF00FF00FF00FF00FF00FF0076
:10425000FF00FF00FF00FF00FF00FF00FF00FF0066
:10426000FF00FF00FF00FF00FF00FF00FF00FF0056
:10427000FF00FF00FF00FF00FF00FF00FF00FF0046
:10428000FF00FF00FF00FF00FF00FF00FF00FF0036
:10429000FF00FF00FF00FF00FF00FF00FF00FF0026
:1042A000FF00FF00FF00FF00FF00FF00FF00FF0016
:1042B000FF00FF00FF00FF00FF00FF00FF00FF0006
:1042C000FF00FF00FF00FF00FF00FF00FF00FF00F6
:1042D000FF00FF00FF00FF00FF00FF00FF00FF00E6
:1042E000FF00FF00FF00FF00FF00FF00FF00FF00D6
:1042F000FF00FF00FF00FF00FF00FF00FF00FF00C6
:10430000FF00FF00FF00FF00FF00FF00FF00FF00B5
:10431000FF00FF00FF00FF00FF00FF00FF00FF00A5
:10432000FF00FF00FF00FF00FF00FF00FF00FF0095
:10433000FF00FF00FF00FF00FF00FF00FF00FF0085
:10434000FF00FF00FF00FF00FF00FF00FF00FF0075
:10435000FF00FF00FF00FF00FF00FF00FF00FF0065
:10436000FF00FF00FF00FF00FF00FF00FF00FF0055
:10437000FF00FF00FF00FF00FF00FF00FF00FF0045
:10438000FF00FF00FF00FF00FF00FF00FF00FF0035
:10439000FF00FF00FF00FF00FF00FF00FF00FF0025
:1043A000FF00FF00FF00FF00FF00FF00FF00FF0015
:1043B000FF00FF00FF00FF00FF00FF00FF00FF0005
:1043C000FF00FF00FF00FF00FF00FF00FF00FF00F5
:1043D000FF00FF00FF00FF00FF00FF00FF00FF00E5
:1043E000FF00FF00FF00FF00FF00FF00FF00FF00D5
:1043F000FF00FF00FF00FF00FF00FF00FF00FF00C5
:04400E000218FF3F56
:08400000FF3FFF3FFF3FFF3FC0
:00000001FF
