:020000040000FA
:100000008A111128FF3FFF3FFE00030E83120313E6
:10001000D3000408D4000A08D5007F08D6008A154A
:1000200062298A152E291C208A1120208A112B2052
:100030008A118312BA01612B3030831290000800BC
:10004000D8015808203E84000A308001D80A58029E
:10005000031808002128D8015808A03E84001C304D
:100060008001D80A5802031C2C287E308316A00079
:100070001830A101A2001030A300FF30A401AD0090
:10008000FE30AE00AF01B00108008316C801C901FF
:100090004808C50090300310C50D0310C50D0310AE
:1000A000C50D4507C60049084607C700840008304B
:1000B00083178001C90A4902031C48280530C80A71
:1000C0004802031C472896248A110330D9003C308B
:1000D000A1238A110A3066260330BA00080083166D
:1000E000CC01CD014D08213E840083130008CB00D4
:1000F0004D083C3E840000084B06CC040830CD0A75
:100100004D02031C72288312290835068316CC047D
:10011000CC08031D9828E8258A1103308312D900E2
:100120002830A1238A110A3066260630BA0008005A
:10013000D7238A110330D9005430A123BA01BA0A57
:100140000800E9280330D9002C30A1238A11831636
:10015000CC014C08213E840083130008CB004C08DE
:100160003C3E84004B0880000830CC0A4C02031C43
:10017000A92883122908B9000230B501BA00612B01
:100180000430D9001F30A1238A112108B5002208AC
:10019000B90039080319080035088316C500831211
:1001A00023088316C600831224088316C70083120F
:1001B00025088316C80083123908D9248A1104300F
:1001C000D9001530A1238A110A3066260730BA00FB
:1001D00008002008013A0319A228113A0319C0287F
:1001E000F128080073290330D9004830A1238A116F
:1001F000B9238A1111308316C5008312350883167E
:10020000C600831239088316C700831239081124E7
:100210008A1110308316C500831235088316C60074
:10022000831239088316C7008312350811248A11F6
:100230000330D9005430A123BA01BA0A08000430AF
:10024000D9001030A1238A118316CC018312210812
:1002500035068316CC048312220839068316CC0493
:10026000CC08031D0800B9238A11350803191C297D
:1002700039088316C500831223088316C60083122B
:1002800024088316C700831225088316C80083122A
:100290003508AE248A110430D9001A301B290330E6
:1002A000D9005030A1238A118316CC018312200873
:1002B000113A8316CC048312210835068316CC0428
:1002C0008312220839068316CC04CC08031D0800CB
:1002D000B9238A1109292008123A03191F29EC3A77
:1002E00003194F2978293B08003A0319F3286B2991
:1002F0000800C0290330D9004830A1238A11B9234E
:100300008A11D7238A110330D9005430A123BA01AE
:10031000BA0A08000330D9004030A1238A11B9235A
:100320008A110530BA00612B0330D9005030A12367
:100330008A118316C801C9014908213E840083132C
:100340000008C70049083C3E840000084706C8046E
:100350000830C90A4902031C9C2983122908350662
:100360008316C804C808031D0800B9238A11872909
:100370002008033A03198A29FC3A03199429C5294C
:100380003B08003A03197A29B8290800C72A033024
:10039000D9004830A1238A11B9238A118316D701C5
:1003A000D501D6015708C90090300310C90D0310BC
:1003B000C90D0310C90D4907CA0056084A07CB00EA
:1003C000840083170008D5040830D60A5602031C9F
:1003D000D229D508031D562A831235080319FF298F
:1003E00083165708013EC900003003180130CA00C7
:1003F00083123908831649064A04031D032A83160B
:10040000570A8312B5008316D501D6015708C900D3
:10041000B8300310C90D0310C90D0310C90D4907E9
:10042000CA0056084A07CB0084000008CC005608D2
:10043000CD3E84004C08831380005708C900B830B3
:100440000310C90D0310C90D0310C90D4907CA00D7
:1004500056084A07CB00840083170008D5040830EB
:10046000D60A5602031C062A55080319562A5708AD
:10047000FF3E8312DB00CD3005258A118316D6019D
:100480005708C900B8300310C90D0310C90D031077
:10049000C90D4907CA0056084A07CB008400083036
:1004A00083178001D60A5602031C402A0530D70A5A
:1004B0005702031CD0298312B508031D682AD723CD
:1004C0008A110330D9005430A123BA01BA0A0800B6
:1004D00075258A110330D9003430A1238A110A30DE
:1004E00066260430BA0008000330D9003830A12352
:1004F0008A118316D7015708213E84008313000810
:10050000C900831229088316CA0090300310CA0D4F
:100510000310CA0D0310CA0D4A07CB0057084B073A
:10052000CC0084004908831780000830D70A57029E
:10053000031808007B2A0330D9005030A1238A1108
:100540008316D501D7015708213E84008313000884
:10055000C90057083C3E840000084906D50408300D
:10056000D70A5702031CA32A8312290835068316CB
:10057000D504D508031D0800B9238A11652A20086F
:10058000093A0319742AF63A03199B2ACC2A3B0824
:10059000003A0319C729BF2A08005B2B0330D90092
:1005A0004830A1238A11B9238A11D7238A11033035
:1005B000D9005430A123BA01BA0A08000330D90087
:1005C0003030A1238A118316CB01CC014C08213E87
:1005D000840083130008C7004C083C3E84000008D8
:1005E0004706CB040830CC0A4C02031CE62A8312CF
:1005F000290835068316CB04CB08031D0800B92350
:100600008A118316CC014C083C3E840083130008F9
:10061000C700831235088316C800B0300310C80D18
:100620000310C80D0310C80D4807C9004C0849073E
:10063000CA0084004708831780000830CC0A4C02A7
:10064000031C032BAE258A110330D9004C30A123A3
:100650008A110E30BA01BA0AD9000130A12B033039
:10066000D9005030A1238A118316CB01CC014C084C
:10067000213E840083130008C7004C083C3E8400E0
:1006800000084706CB040830CC0A4C02031C372B69
:100690008312290835068316CB04CB08031D0800F6
:1006A000B9238A11DB2A2008053A0319DE2AFA3A0F
:1006B00003192F2B602B3B08003A0319CE2A532B2A
:1006C00008002108C1238A113A0884000830040276
:1006D0000318080007308A000310040DE73E82006B
:1006E00008000230D9006130A1238A11602C023049
:1006F000D9006D30A1238A11A1280230D9005B30C6
:10070000A1238A1145280230D9006730A1238A111C
:10071000C6290230D9006430A1238A117929023018
:10072000D9006A30A1238A116F280230D9005830CD
:10073000A1238A11CD2A0230D9005E30A1238A116B
:10074000F228DA004030C1238A115908C1238A11E6
:10075000DB0159085B020318B72B5B085A078400BA
:100760008A115D278A11C1238A11DB0AA92B403027
:10077000C12B8312101083160C1083120C10BB01B6
:100780000800D8003008403A310403190800AE0AC6
:100790000319AF0A3F30AE05AF012E08103E8400AA
:1007A000580883178000B00A0319B10A08003C30CA
:1007B0008312D800D90131268A11FF308316B10087
:1007C00012308312DB005B08013E8316C500003047
:1007D00003180130C6004608803AFF0080307F02CF
:1007E000031DF42B1B3045020318092C831203133D
:1007F0005B08CA3E8400831300088316C500831279
:100800005B08A03E84008316450880008312DB0A43
:10081000E32B8312031335088316BA004A248A1186
:10082000522E8316CA00C8000310C80D0310C80D4D
:100830000310480DB03E8312D8000130D900312694
:100840008A11FE308316B1004508B2004608B30095
:100850004708B4001530CB004B08013EC8000030FB
:1008600003180130C9004908803AFF0080307F0238
:10087000031D3C2C1B3048020318472C831603131E
:100880004B08A03E840083138001CB0A2C2C4A2401
:100890008A11522E831203300313D801D90059084C
:1008A000A03E840083130008D8071B30D90A5902E0
:1008B000031C4F2CFF30D80658088316BB000800D5
:1008C0008316CB01CA014B08C700B8300310C70D0F
:1008D0000310C70D0310C70D4707C8004A08480793
:1008E000C9008400083083178001CA0A4A02031C29
:1008F000632C0530CB0A4B02031C622CCB014B0846
:100900003C3E8400083083138001CB0A4B02031C59
:100910007F2C8312B401B901B5013D258A11033042
:10092000D9004430A123BA01BA0A0800E430831286
:10093000D800D90131268A1108308316B10012304F
:100940008312DB005B08A03E84001B308001DB0AC1
:100950005B02031CA22C4A248A11522E8316C90062
:100960008312DB000310DB0D0310DB0D03105B0DA6
:10097000B03ED8000130D90031268A1113308316D9
:10098000B1004908B2004508B3004608B400470862
:10099000B5004808B6001730CA004A08A03E8400D7
:1009A0001B308001CA0A4A02031CCD2C4A248A113A
:1009B000522E8316C90045088312DB000310DB0D9D
:1009C0000310DB0D03105B0DB03ED8000130D900E1
:1009D00031268A1111308316B1004908B20045084A
:1009E000B3004608B4004708B5004808B600173001
:1009F000CA004A08A03E84001B308001CA0A4A028D
:100A0000031CF92C4A248A11522E8316C700E430A5
:100A10008312D800D90131268A1107308316B1001C
:100A20001230C8004808013EC500003003180130EC
:100A3000C6004608803AFF0080307F02031D222D49
:100A40001B3045020318352D83160313480847074A
:100A5000C500EE3E840083130008C6004808A03E8F
:100A6000840046088000C80A122D831203135B0815
:100A70008316BA004A248A11522EE430D800D901D4
:100A800031268A1183161230B1018312DB005B0814
:100A9000013E8316C500003003180130C600460829
:100AA000803AFF0080307F02031D582D1B30450225
:100AB00003186D2D831203135B08CA3E8400831351
:100AC00000088316C50083125B08A03E84008316CD
:100AD000450880008312DB0A472D83120313340874
:100AE0008316BA004A248A11522E3C30D800D9010C
:100AF00031268A1102308316B10012308312DB00D6
:100B00005B08013E8316C500003003180130C600A3
:100B10004608803AFF0080307F02031D912D1B3074
:100B200045020318A62D831203135B08CA3E8400F6
:100B3000831300088316C50083125B08A03E84005F
:100B40008316450880008312DB0A802D831203136D
:100B500035088316BA004A248A11522EE4308312D3
:100B6000D800D90131268A1106308316B10012301F
:100B70008312DB005B08013E8316C50000300318BA
:100B80000130C6004608803AFF0080307F02031D16
:100B9000CB2D1B3045020318E02D831203135B0895
:100BA0002A3E8400831300088316C50083125B0865
:100BB000A03E84008316450880008312DB0ABA2D0C
:100BC0008312031335088316BA004A248A11522E61
:100BD0003C308312D800D90131268A1104308316A3
:100BE000B100CA011230C9004908013EC5000030F9
:100BF00003180130C6004608803AFF0080307F02AB
:100C0000031D042E1B3045020318222E83160313E6
:100C10004A08C500A6300310C50D0310C50D03100A
:100C2000C50D4507C60049084607C700840083175D
:100C30000008C8004908A03E8400480883138000CB
:100C4000C90AF42D831603134A0ABA004A248A11EA
:100C500052268A1183160530CA0A4A020318080070
:100C6000F22DDA015A0858078316C2008312590878
:100C70000318013E8316C300420884008317431CF7
:100C800083130008C40083125A08A53E840083160B
:100C900044088313800083120830DA0A5A020318CA
:100CA0000800322E8312D9015908A03E84000008A2
:100CB00060268A111C30D90A590203180800542EE4
:100CC000D8000C1E612E5808990008008316C40035
:100CD0008312101483160C1483120C148E018F01CE
:100CE0008316BE01BF0144088312D8000A30D9011F
:100CF000DA00DB01862659088316C10083125808E2
:100D00008316C000FF308312BB0008008316C201A7
:100D1000C3018312581C952E5A088316C207031864
:100D2000C30A83125B088316C30783120310DA0D0C
:100D3000DB0D0310D90CD80C59085804031D892E5B
:100D4000831643088312D900831642088312D80001
:100D500008007C3083168F0005308312D800D9013B
:100D60008A11D2278A118B1383169B0107309C00AE
:100D7000831285018316850183128601373083161D
:100D800086008A151F218A110530D800D9018A11E1
:100D9000D2278A118A11F7278A118A1515218A11FB
:100DA0008A111C208A118A1113208A1183120313BD
:100DB000981CDC2E18121816141B1413370BD62E81
:100DC000482F36087E3A031D592FB801B80A592F0B
:100DD0003608AA000230AB01AC01AD013F2F360846
:100DE000AA0701300318AB070318AC070318AD07B7
:100DF00003303F2F00302D02031D082F00302C023E
:100E0000031D082F00302B02031D082F0B302A0270
:100E10000318172F2A308316D80083122A08831646
:100E2000D8025808840083123608831380000130EA
:100E30008316D800D901DA01DB018312AA028316D6
:100E40005908031C590F252F272F8312AB02831635
:100E50005A08031C5A0F2D2F2F2F8312AC02831612
:100E60005B08031C5B0F352F372F8312AD028312F3
:100E70002D082C042B042A04031D592F0430B8001C
:100E8000592FB8018A1161238A11592FB801592F9E
:100E90003808003A0319E12E013A0319E82E033A03
:100EA0000319EF2E013A0319FA2E073A0319412FBD
:100EB000462F83120313B701D62E07308A00040889
:100EC000840A82070034203472346F3475347434E9
:100ED0006534723420346A346F3469346E34653466
:100EE0006434003420343C344D34413400342034F4
:100EF0003E344D344334003420343E344D34503489
:100F0000003420343C344D34513400347934363498
:100F10000D34003420343E344134003420343C3429
:100F20004434003420343C344A34003420343E34D9
:100F30004F34003420343C345034003420343E34B8
:100F40005034003420343C345234003420343E34A5
:100F50005234003420343C345434003420343E3491
:100F60005534003420343C345834003420343E347A
:100F700058340034213441340034213444340034B2
:100F800021344D34003421344E34003421344F3474
:100F900000342134503400342134523400342134AC
:100FA000543400345908580403190800DA01DB01ED
:100FB000DA0A0319DB0A27305B02103003195A02E0
:100FC000031CD82FFF30D807031CD903D22F8A1156
:100FD000712B8A11772B8A117D2B8A11832B8A1111
:100FE000892B8A118F2B8A11952B8A119B2BFF300D
:100FF000B001B101AE00AF008316BC01BD01080015
:101000008A15BC2E8A15C32E8A15CA2E8A15D12E92
:101010008A15D82E8A15DF2E8A15E62E8A15ED2E12
:10102000FF3FFF3FFF3FFF3FFF3FFF3FFF3FFF3FD0
:10103000FF3FFF3FFF3FFF3FFF3FFF3FFF3FFF3FC0
:10104000FF3FFF3FFF3FFF3FFF3FFF3FFF3FFF3FB0
:10105000FF3FFF3FFF3FFF3FFF3FFF3FFF3FFF3FA0
:10106000FF3FFF3FFF3FFF3FFF3FFF3FFF3FFF3F90
:10107000FF3FFF3FFF3FFF3FFF3FFF3FFF3FFF3F80
:10108000FF3FFF3FFF3FFF3FFF3FFF3FFF3FFF3F70
:10109000FF3FFF3FFF3FFF3FFF3FFF3FFF3FFF3F60
:1010A000FF3FFF3FFF3FFF3FFF3FFF3FFF3FFF3F50
:1010B000FF3FFF3FFF3FFF3FFF3FFF3FFF3FFF3F40
:1010C000FF3FFF3FFF3FFF3FFF3FFF3FFF3FFF3F30
:1010D000FF3FFF3FFF3FFF3FFF3FFF3FFF3FFF3F20
:1010E000FF3FFF3FFF3FFF3FFF3FFF3FFF3FFF3F10
:1010F000FF3FFF3FFF3FFF3FFF3FFF3FFF3FFF3F00
:10110000FF3FFF3FFF3FFF3FFF3FFF3FFF3FFF3FEF
:10111000FF3FFF3FFF3FFF3FFF3FFF3FFF3FFF3FDF
:10112000FF3FFF3FFF3FFF3FFF3FFF3FFF3FFF3FCF
:10113000FF3FFF3FFF3FFF3FFF3FFF3FFF3FFF3FBF
:10114000FF3FFF3FFF3FFF3FFF3FFF3FFF3FFF3FAF
:10115000FF3FFF3FFF3FFF3FFF3FFF3FFF3FFF3F9F
:10116000FF3FFF3FFF3FFF3FFF3FFF3FFF3FFF3F8F
:10117000FF3FFF3FFF3FFF3FFF3FFF3FFF3FFF3F7F
:10118000FF3FFF3FFF3FFF3FFF3FFF3FFF3FFF3F6F
:10119000FF3FFF3FFF3FFF3FFF3FFF3FFF3FFF3F5F
:1011A000FF3FFF3FFF3FFF3FFF3FFF3FFF3FFF3F4F
:1011B000FF3FFF3FFF3FFF3FFF3FFF3FFF3FFF3F3F
:1011C000FF3FFF3FFF3FFF3FFF3FFF3FFF3FFF3F2F
:1011D000FF3FFF3FFF3FFF3FFF3FFF3FFF3FFF3F1F
:1011E000FF3FFF3FFF3FFF3FFF3FFF3FFF3FFF3F0F
:1011F000FF3FFF3FFF3FFF3FFF3FFF3FFF3FFF3FFF
:10120000FF3FFF3FFF3FFF3FFF3FFF3FFF3FFF3FEE
:10121000FF3FFF3FFF3FFF3FFF3F64008001840A25
:1012200004060319003404060E2936308312940094
:10123000A030831693008C150B178B170800813094
:1012400099001815981618128312981783168C1681
:101250000C120B1783121813181608002030831372
:10126000840044308A150D218A15A0308400C230D4
:101270008A150D218A15903083178400E0308A1575
:101280000D218A151030840070308A150D218316C7
:101290001330DC01DD00A230DE004030DF01E00071
:1012A000A930E100E230E200AA30E300FF30E401BF
:1012B000E501E601E701E801E901EA00EB0083014D
:1012C0008A11A92E0C1C7E2983160C1C7E2941082C
:1012D0003F06031D6D2940083E06031D7929831230
:1012E000BB018A15B8268A1583160313BE01BF01F8
:1012F0007C29BE0A0319BF0A83120C1083160C1D29
:10130000932983120C1D9329B308031D8E290430E1
:10131000970016081508B301B30A91291608150895
:10132000B3010C11ED2983128C1EA12983168C1E8A
:10133000A1298B1383121A08B600B701B70A8C12C1
:10134000EC2983128C1DED29831614088312D70013
:101350002D30D7058B135708093A031DB329B20165
:101360001308B600EB295708293A031DC129320892
:10137000503E84001308831780001F30B20AB20564
:10138000EB2957082C390C3A031DD429F8218A156A
:10139000B60083161418C9298312941336089300D3
:1013A000941BCC291416EB2957082C3A031DE52968
:1013B000F8218A15B60083161418DB2983129413BA
:1013C00036089300941FD229DE2957082839283A75
:1013D0000319EB2924308C118B175608FF00550890
:1013E0008A0054088400530E8300FE0E7E0E09000E
:1013F000310830040319243483163C08103E84005D
:1014000083170008F000BC0A0319BD0A3F30BC0571
:10141000FF30BD018312B007031CB1037008080040
:101420000800FD01FC017D08F900B8300310F90D3A
:101430000310F90D0310F90D7907FA007C087A07FB
:10144000FB008400083083178001FC0A7C02031C27
:10145000132A0530FD0A7D02031C122AFD017D08B6
:101460003C3E8400083083138001FD0A7D02031C8A
:101470002F2AB401B901B501E1220330F100443053
:101480008A150127BA01BA0A0800FA01FB017A0895
:10149000F70090300310F70D0310F70D0310F70D50
:1014A0007707F8007B087807F90084000830831775
:1014B0008001FB0A7B02031C472A0530FA0A7A02E4
:1014C000031C462A6F220330F1003C308A150127A5
:1014D0008A150A308A15CD270330BA000800E43097
:1014E000F000F1018A15B2278A1508308316B10081
:1014F0001230F6007608A03E84001B308001F60A08
:101500007602031C7A2A8A159D278A15F42308007F
:10151000FB00FA000310FA0D0310FA0D03107A0D08
:10152000B03EF0000130F1008A15B2278A15133061
:101530008316B1007B08B2007608B3007708B400C8
:101540007808B5007908B6001730FC007C08A03E8A
:1015500084001B308001FC0A7C02031CA62A8A1529
:101560009D278A15F4230800FB007608FA00031073
:10157000FA0D0310FA0D03107A0DB03EF0000130A1
:10158000F1008A15B2278A1511308316B1007B0845
:10159000B2007608B3007708B4007808B50079087F
:1015A000B6001730FC007C08A03E84001B30800190
:1015B000FC0A7C02031CD32A8A159D278A15F42372
:1015C0000800E430F000F1018A15B2278A1583166D
:1015D0001230B101F8007808013EF600003003181F
:1015E0000130F700803AFF0080307F02031DFA2AA5
:1015F0001B3076020318092B7808CA3E8400831337
:101600000008F6007808A03E840076088000F80AFA
:10161000EB2A8312031334088316BA008A159D2718
:101620008A15F4230800E430F000F1018A15B2278E
:101630008A1506308316B1001230F8007808013E92
:10164000F600003003180130F700803AFF008030C8
:101650007F02031D2D2B1B30760203183C2B7808CC
:101660002A3E840083130008F6007808A03E840018
:1016700076088000F80A1E2B8312031335088316A0
:10168000BA008A159D278A15F42308003C30F00023
:10169000F1018A15B2278A1502308316B100123083
:1016A000F8007808013EF600003003180130F7001A
:1016B000803AFF0080307F02031D602B1B307602D2
:1016C00003186F2B7808CA3E840083130008F600C5
:1016D0007808A03E840076088000F80A512B831217
:1016E000031335088316BA008A159D278A15F4233B
:1016F0000800F900E430F000F1018A15B2278A15DC
:1017000007308316B1001230FA007A08013EF70064
:10171000003003180130F800803AFF0080307F026B
:10172000031D942B1B3077020318A52B7A08790729
:10173000F700EE3E840083130008F8007A08A03E0C
:10174000840078088000FA0A852B76088316031334
:10175000BA008A159D278A15F42308003C30F00052
:10176000F1018A15B2278A1504308316B100FB01F6
:101770001230FA007A08013EF600003003180130FA
:10178000F700803AFF0080307F02031DC92B1B3019
:1017900076020318E52B7B08F600A6300310F60D41
:1017A0000310F60D0310F60D7607F7007A08770799
:1017B000F800840083170008F9007A08A03E84002E
:1017C000790883138000FA0ABA2B7B0A8316031365
:1017D000BA008A159D278A15F4238A150530FB0A5D
:1017E0007B0203180800B82BF1017108A03E8400A9
:1017F000000801248A151C30F10A71020318080040
:10180000F52BF00083120C1E022C700899000800C2
:10181000C401C5014508213E840083130008FC0073
:1018200045083C3E840000087C06C4040830C50A14
:101830004502031C0A2C29083506C404C408031DEC
:101840002E2C8A15AE238A150330F100283001278B
:101850008A150A30CD270630BA00080037278A15C6
:101860000330F10054300127BA01BA0A0800772C7E
:101870000330F1002C3001278A15C4014408213EB1
:10188000840083130008FD0044083C3E84007D086A
:1018900080000830C40A4402031C3E2C2908B90009
:1018A0000230B501BA00B82608000430F1001F303C
:1018B00001278A152108B5002208B9003908031943
:1018C00008003508F6002308F7002408F80025086A
:1018D000F90039088A15B4228A150430F100153050
:1018E00001278A150A30CD270730BA0008002008E2
:1018F000013A0319382C113A0319552C7F2C080092
:10190000E22C0330F100483001278A151A278A1586
:101910001130F6003508F7003908F8003908682753
:101920008A151030F6003508F7003908F800350838
:1019300068278A150330F10054300127BA01BA0A2A
:1019400008000430F100103001278A15FD0121083C
:101950003506FD0422083906FD04FD08031D0800B4
:101960001A278A15350803199E2C3908F600230812
:10197000F7002408F8002508F90035088A158822A0
:101980008A150430F1001A309D2C0330F1005030DC
:1019900001278A15FD012008113AFD0421083506AA
:1019A000FD0422083906FD04FD08031D08001A275E
:1019B0008A15912C2008123A0319A12CEC3A03192C
:1019C000C52CE72C3B08003A0319812CDA2C0800BF
:1019D0002D2D0330F100483001278A151A278A156A
:1019E00037278A150330F10054300127BA01BA0AAB
:1019F00008000330F100403001278A151A278A15A4
:101A00000530BA00B82608000330F1005030012735
:101A10008A15FA01FB017B08213E8400831300082C
:101A2000F9007B083C3E840000087906FA0408307F
:101A3000FB0A7B02031C0B2D29083506FA04FA0861
:101A4000031D08001A278A15F62C2008033A0319EB
:101A5000F92CFC3A0319042D322D3B08003A0319E6
:101A6000E92C252D0800252E0330F10048300127F0
:101A70008A151A278A15D201D001D1015208C40053
:101A800090300310C40D0310C40D0310C40D44079F
:101A9000C50051084507C600840083170008D0041C
:101AA0000830D10A5102031C3E2DD008031DBA2D67
:101AB00035080319672D5208013EC4000030031891
:101AC0000130C500390844064504031D692D520A3A
:101AD000B500D001D1015208C400B8300310C40DC4
:101AE0000310C40D0310C40D4407C5005108450779
:101AF000C60084000008C7005108483E840047081B
:101B0000831380005208C400B8300310C40D0310C2
:101B1000C40D0310C40D4407C50051084507C60095
:101B2000840083170008D0040830D10A5102031C36
:101B30006B2D50080319BA2D5208FF3EF6004830AD
:101B40008A1579238A15D1015208C400B8300310D0
:101B5000C40D0310C40D0310C40D4407C500510883
:101B60004507C6008400083083178001D10A51025E
:101B7000031CA42D0530D20A5202031C3C2DB508CB
:101B8000031DCB2D37278A150330F1005430012770
:101B9000BA01BA0A08008A1546238A150330F100F3
:101BA000343001278A150A30CD270430BA000800E6
:101BB0000330F100383001278A15D2015208213E46
:101BC000840083130008C4002908C5009030031066
:101BD000C50D0310C50D0310C50D4507C6005208FD
:101BE0004607C70084004408831780000830D20AE3
:101BF000520203180800DE2D0330F1005030012797
:101C00008A15D001D2015208213E840083130008B6
:101C1000C40052083C3E840000084406D00408304A
:101C2000D20A5202031C032E29083506D004D0081C
:101C3000031D08001A278A15C82D2008093A031920
:101C4000D82DF63A0319FC2D2A2E3B08003A031929
:101C5000342D1D2E0800B22E0330F100483001272C
:101C60008A151A278A1537278A150330F100543050
:101C70000127BA01BA0A08000330F1003030012709
:101C80008A15C401C5014508213E8400831300085C
:101C9000F90045083C3E840000087906C404083079
:101CA000C50A4502031C432E29083506C404C4088E
:101CB000031D08001A278A15C50145083C3E84000B
:101CC00083130008F9003508FA00B0300310FA0D4C
:101CD0000310FA0D0310FA0D7A07FB0045087B0785
:101CE000FC0084007908831780000830C50A45028B
:101CF000031C5D2E8A1513238A150330F1004C3026
:101D000001278A150E30BA01BA0AF1000130012705
:101D100008000330F100503001278A15C401C501C5
:101D20004508213E840083130008F90045083C3E25
:101D3000840000087906C4040830C50A4502031C63
:101D4000902E29083506C404C408031D08001A276C
:101D50008A15392E2008053A03193C2EFA3A031940
:101D6000892EB72E3B08003A03192C2EAA2E080004
:101D7000210821278A15F42E0230F1006130012755
:101D80008A15112208000230F1006D3001278A15F2
:101D9000372408000230F1005B3001278A15452204
:101DA00008000230F100673001278A15332508004A
:101DB0000230F100643001278A15E824080002305F
:101DC000F1006A3001278A15082408000230F1006A
:101DD000583001278A152B2608000230F1005E30AA
:101DE00001278A15802408003A088400083004027C
:101DF0000318080008308A000310040D003E82001A
:101E00000800F200403021278A15710821278A1521
:101E1000F301710873020318172F73087207840007
:101E20008A115D278A1521278A15F30A092F403068
:101E300021270800101083160C1083120C10BB0110
:101E40000800F0003008403A310403190800AE0AD7
:101E50000319AF0A3F30AE05AF012E08103E8400D3
:101E6000700883178000B00A0319B10A08003C30DB
:101E7000F000F101B2278A15FF308316B10012304D
:101E8000F8007808013EF600003003180130F70032
:101E9000803AFF0080307F02031D502F1B307602F6
:101EA00003185F2F7808CA3E840083130008F600E9
:101EB0007808A03E840076088000F80A412F83123B
:101EC000031335088316BA009D278A15F4230800EA
:101ED000FB00F9000310F90D0310F90D0310790D43
:101EE000B03EF0000130F100B2278A15FE308316B3
:101EF000B1007608B2007708B3007808B400153056
:101F0000FC007C08013EF900003003180130FA00A3
:101F1000803AFF0080307F02031D902F1B30790232
:101F20000318992F7C08A03E840083138001FC0ACB
:101F3000812F9D278A15F42308000330F001F1005A
:101F40007108A03E840083130008F0071B30F10ADB
:101F50007102031CA02FFF30F006700883160313D4
:101F6000BB000800F50175087007F200710803183E
:101F7000013EF300720884008317731C831300086A
:101F8000F4007508A53E84007408831380000830AF
:101F9000F50A750203180800B32FF6001014831613
:101FA0000C1483120C148E018F018316BE01BF0125
:101FB0007608F0000A30F101F200F301E72771081A
:101FC000C1007008C000FF308312BB000800F4019C
:101FD000F501701CF12F7208F4070318F50A730855
:101FE000F5070310F20DF30D0310F10CF00C71085E
:101FF0007004031DE92F7508F1007408F000080053
:10420000FF00FF00FF00FF00FF00FF00FF00FF00B6
:10421000FF00FF00FF00FF00FF00FF00FF00FF00A6
:10422000FF00FF00FF00FF00FF00FF00FF00FF0096
:10423000FF00FF00FF00FF00FF00FF00FF00FF0086
:10424000FF00FF00FF00FF00FF00FF00FF00FF0076
:10425000FF00FF00FF00FF00FF00FF00FF00FF0066
:10426000FF00FF00FF00FF00FF00FF00FF00FF0056
:10427000FF00FF00FF00FF00FF00FF00FF00FF0046
:10428000FF00FF00FF00FF00FF00FF00FF00FF0036
:10429000FF00FF00FF00FF00FF00FF00FF00FF0026
:1042A000FF00FF00FF00FF00FF00FF00FF00FF0016
:1042B000FF00FF00FF00FF00FF00FF00FF00FF0006
:1042C000FF00FF00FF00FF00FF00FF00FF00FF00F6
:1042D000FF00FF00FF00FF00FF00FF00FF00FF00E6
:1042E000FF00FF00FF00FF00FF00FF00FF00FF00D6
:1042F000FF00FF00FF00FF00FF00FF00FF00FF00C6
:10430000FF00FF00FF00FF00FF00FF00FF00FF00B5
:10431000FF00FF00FF00FF00FF00FF00FF00FF00A5
:10432000FF00FF00FF00FF00FF00FF00FF00FF0095
:10433000FF00FF00FF00FF00FF00FF00FF00FF0085
:10434000FF00FF00FF00FF00FF00FF00FF00FF0075
:10435000FF00FF00FF00FF00FF00FF00FF00FF0065
:10436000FF00FF00FF00FF00FF00FF00FF00FF0055
:10437000FF00FF00FF00FF00FF00FF00FF00FF0045
:10438000FF00FF00FF00FF00FF00FF00FF00FF0035
:10439000FF00FF00FF00FF00FF00FF00FF00FF0025
:1043A000FF00FF00FF00FF00FF00FF00FF00FF0015
:1043B000FF00FF00FF00FF00FF00FF00FF00FF0005
:1043C000FF00FF00FF00FF00FF00FF00FF00FF00F5
:1043D000FF00FF00FF00FF00FF00FF00FF00FF00E5
:1043E000FF00FF00FF00FF00FF00FF00FF00FF00D5
:1043F000FF00FF00FF00FF00FF00FF00FF00FF00C5
:04400E000218FF3F56
:08400000FF3FFF3FFF3FFF3FC0
:00000001FF
